:1000000048C000006DC000006BC0000069C0000067
:1000100067C0000065C0000063C0000061C0000050
:100020005FC000005DC000005BC0000059C0000060
:1000300057C0000061C1000053C0000051C0000063
:100040004FC000004DC000004BC0000049C0000080
:1000500047C0000045C0000043C0000041C0000090
:100060003FC000003DC000003BC0000039C00000A0
:1000700037C0000035C0000033C0000031C00000B0
:100080002FC000002DC000002BC00000F000770141
:100090006C0311241FBECFEFD0E4DEBFCDBF11E053
:1000A000A0E0B1E0E4E1FAE000E00BBF02C007909D
:1000B0000D92A231B107D9F728E0A2E1B1E001C069
:1000C0001D92AC3AB207E1F710E0C9E4D0E003C0FA
:1000D0002197FE0194D4C634D107D1F70CD198C42E
:1000E0008FCF2EE036E0FC01A90111924150504023
:1000F000E1F7FC018A5C9E4F54E043E032E021E0EE
:100100005083DF01AA5CBE4F4C93AA5CBE4F3C9368
:10011000AA5CBE4F2C93AA5CBE4F1C923A96E8177D
:10012000F90771F708958F929F92AF92BF92CF9285
:10013000DF92EF92FF920F931F93CF93DF935C01B7
:100140007C0182EFE81A89EFF80A65018BE7C81A8B
:1001500088EFD80A13C0C40147D083E0880E911CF1
:100160008C169D06C1F7E016F10629F04801015FE3
:100170001F4FE801F0CFCE14DF0429F087018BE494
:10018000E80EF11CF3CFF501EB57F84F10823196D2
:100190001082249A84B1806A84B98CB580658CBD44
:1001A0008DB581608DBDC5019CDFE0910201F091AC
:1001B0000301808180648083E0910001F09101015E
:1001C000808180688083DF91CF911F910F91FF9094
:1001D000EF90DF90CF90BF90AF909F908F90089559
:1001E00082E191E0A0CF0895FC0110821182128279
:1001F0000895FC01108211821282138215821482EA
:10020000A0910801B09109018C91837C8C93A091FD
:100210000601B09107018C918C638C93A0910C0125
:10022000B0910D018C91887F8C93A0910A01B091BF
:100230000B018C9187608C93A0910E01B0910F01FE
:100240008C9181FD02C083E001C080E09C9190FD13
:1002500002C091E0892781830895E0910E01F09119
:100260000F01808182FB882780F991E0892708951A
:10027000CF93DF93FC01A0910E01B0910F018C91FF
:1002800081FD02C093E001C090E08C9180FD02C02E
:1002900081E098278181891B80FF06C0918390812E
:1002A00091508270890F8083848195810196958316
:1002B00084832381211118C0853F9140A8F0EF016C
:1002C000828181110AC0CF01C8DF882319F081E043
:1002D0008A8303C08A81882339F0CE01BEDF811171
:1002E00003C01A8281E08B83DF91CF9108958CE95E
:1002F00098E07FCF0895FFCF1F920F920FB60F9215
:1003000011240BB60F922F933F934F935F936F93EC
:100310007F938F939F93AF93BF93CF93DF93EF938D
:10032000FF9329E030E0C8E9D8E0A7E9B8E046E368
:1003300051E0888190E06C91FC01EE0FFF1F880F67
:10034000991F880F991F880F991F8E0F9F1F649FF9
:10035000F001659FF00D1124E80FF91FEE5EFE4FCE
:10036000E20FF31F80818EBD0DB407FEFDCF21503B
:100370003109F8F6809198088F5F8F3118F48093D7
:1003800098080CC010929808809197088F5F85306C
:1003900018F48093970802C010929708E091040126
:1003A000F0910501208181E090E00090100102C0F1
:1003B000880F991F0A94E2F7922F982B9083E0916F
:1003C0000401F091050190818095892380839091AB
:1003D000A2089F5F9093A2088BEA989F812D112419
:1003E000869586958695282F220F820F880F880F75
:1003F000981325C02091A3083091A4084091A50826
:100400005091A6086091A7087091A8088091A9084A
:100410009091AA08A1E0E7D22093A3083093A40802
:100420004093A5085093A6086093A7087093A80866
:100430008093A9089093AA088CE998E019DFFF91AE
:10044000EF91DF91CF91BF91AF919F918F917F916C
:100450006F915F914F913F912F910F900BBE0F9035
:100460000FBE0F901F901895CF92DF92EF92FF92E0
:10047000CF93DF93F8944098389A8EE59AE00197ED
:10048000F1F73898EBE4F1E03197F1F700C00000A4
:1004900086B182E199E00197F1F700004098389A1F
:1004A00097E09A95F1F700C028E03CEC08C040982E
:1004B000389AE7E0EA95F1F700C080FD38988BE4C0
:1004C00091E00197F1F700C000003898832F90E089
:1004D00095958795382F215051F74098389A97E095
:1004E0009A95F1F700C028E034E408C04098389AA3
:1004F000E7E0EA95F1F700C080FD38988BE491E0E1
:100500000197F1F700C000003898832F90E095958F
:100510008795382F215051F74098389A97E09A954F
:10052000F1F700C03898E7E6EA95F1F7000086B1E8
:10053000E8EFF0E03197F1F700C0000080FFECCF6A
:100540004098389A8EE59AE00197F1F73898EBE4F5
:10055000F1E03197F1F700C0000086B182E199E047
:100560000197F1F700004098389A97E09A95F1F7D3
:1005700000C028E03CEC08C04098389AE7E0EA95D3
:10058000F1F700C080FD38988BE491E00197F1F716
:1005900000C000003898832F90E095958795382FFC
:1005A000215051F74098389A97E09A95F1F700C09A
:1005B00028E03EEB08C04098389AE7E0EA95F1F76A
:1005C00000C080FD38988BE491E00197F1F700C0FE
:1005D00000003898832F90E095958795382F21500B
:1005E00051F798E0C0E04098389AE7E0EA95F1F7D3
:1005F00000C03898F7E6FA95F1F7000086B1E8EF09
:10060000F0E03197F1F700C00000879588278795C3
:10061000C695C82B915039F728E080E04098389A69
:10062000F7E0FA95F1F700C0389847E64A95F1F7F8
:10063000000096B1E8EFF0E03197F1F700C000005C
:100640009795992797958695892B215039F740984A
:10065000389AEEE5FAE03197F1F73898EBE4F1E0FB
:100660003197F1F700C0000096B1E2E1F9E031976F
:10067000F1F7000078946C2F62956F70CF70D0E026
:100680008770F0E18F9FC0011124682B062E000CAB
:10069000770B880B990BB8D06B017C0121E732E016
:1006A000C29FC001C39F900DD29F900D1124BC0129
:1006B00080E090E0A7D027E137EB41ED58E330D15F
:1006C0009B01AC01C701B6010DD0DF91CF91FF9026
:1006D000EF90DF90CF900895C7DE68D06093AB08AD
:1006E00008955058BB27AA270ED0E0C0D1D030F0D3
:1006F000D6D020F031F49F3F11F41EF4C6C00EF4A2
:10070000E095E7FBBCC0E92FE2D080F3BA1762079F
:1007100073078407950718F071F49EF5FAC00EF47C
:10072000E0950B2EBA2FA02D0B01B90190010C0101
:10073000CA01A0011124FF27591B99F0593F50F419
:10074000503E68F11A16F040A22F232F342F442771
:10075000585FF3CF469537952795A795F040539569
:10076000C9F77EF41F16BA0B620B730B840BBAF039
:100770009150A1F0FF0FBB1F661F771F881FC2F7A4
:100780000EC0BA0F621F731F841F48F487957795B8
:100790006795B795F7959E3F08F0B3CF9395880F6F
:1007A00008F09927EE0F97958795089598D088F0CF
:1007B0009F5790F0B92F9927B751A0F0D1F0660F4D
:1007C000771F881F991F1AF0BA95C9F712C0B13068
:1007D00081F09FD0B1E008959CC0672F782F8827C3
:1007E000B85F39F0B93FCCF3869577956795B395A7
:1007F000D9F73EF490958095709561957F4F8F4F16
:100800009F4F0895E89409C097FB3EF4909580951A
:10081000709561957F4F8F4F9F4F9923A9F0F92FC6
:1008200096E9BB279395F695879577956795B79544
:10083000F111F8CFFAF4BB0F11F460FF1BC06F5F2A
:100840007F4F8F4F9F4F16C0882311F096E911C03C
:10085000772321F09EE8872F762F05C0662371F05D
:1008600096E8862F70E060E02AF09A95660F771F71
:10087000881FDAF7880F9695879597F9089597F965
:100880009F6780E870E060E008959FEF80EC089536
:1008900000240A941616170618060906089500245F
:1008A0000A9412161306140605060895092E0394D9
:1008B000000C11F4882352F0BB0F40F4BF2B11F44D
:1008C00060FF04C06F5F7F4F8F4F9F4F089557FDAC
:1008D0009058440F551F59F05F3F71F04795880FAE
:1008E00097FB991F61F09F3F79F087950895121645
:1008F00013061406551FF2CF4695F1DF08C01616F1
:1009000017061806991FF1CF8695710561050894A1
:100910000895E894BB2766277727CB0197F90895B8
:100920000BD0C4CFB5DF28F0BADF18F0952309F05B
:10093000A6CFABCF1124EECFCADFA0F3959FD1F3A2
:10094000950F50E0551F629FF001729FBB27F00D7D
:10095000B11D639FAA27F00DB11DAA1F649F6627D2
:10096000B00DA11D661F829F2227B00DA11D621F21
:10097000739FB00DA11D621F839FA00D611D221FDB
:10098000749F3327A00D611D231F849F600D211DBF
:10099000822F762F6A2F11249F5750408AF0E1F062
:1009A00088234AF0EE0FFF1FBB1F661F771F881FAB
:1009B00091505040A9F79E3F510570F060CFAACFEB
:1009C0005F3FECF3983EDCF3869577956795B79596
:1009D000F795E7959F5FC1F7FE2B880F911D9695C0
:1009E000879597F908950024A7FD00942A0F301DDC
:1009F000401D501D601D701D801D901D0895EE0F3F
:100A0000FF1F0024001C0BBE0790F691E02D0994F7
:040A1000F894FFCF88
:100A140027002700280028002700250024002300A1
:020A24000600CA
:00000001FF
